{
 "cells": [
  {
   "cell_type": "code",
   "execution_count": 21,
   "metadata": {},
   "outputs": [],
   "source": [
    "# with ganache installed \"npm install ganache --global\"\n",
    "# run \"ganache ethereum -d\" which will start a local ethereum node in deterministic mode so that the same accounts are generated each time\n",
    "\n",
    "# deploying to mainnet or testnet is pretty much exactly the same as this. we just need to use an external blockchain node instead of ganache\n",
    "# Infura is a good service for this. https://infura.io/ and it's free to start with\n",
    "# what you would do is when you are creating the web3 object, you would use the infura endpoint instead of the ganache endpoint\n",
    "# and use a real wallet address with a real private key instead of the ganache wallet address and private key"
   ]
  },
  {
   "cell_type": "code",
   "execution_count": 1,
   "metadata": {},
   "outputs": [],
   "source": [
    "# now we can do much the same as we have in the deploy.ipynb notebook"
   ]
  },
  {
   "cell_type": "code",
   "execution_count": 2,
   "metadata": {},
   "outputs": [
    {
     "name": "stdout",
     "output_type": "stream",
     "text": [
      "// SPDX-License-Identifier: MIT\n",
      "pragma solidity ^0.8.12;\n",
      "\n",
      "contract SimpleStorage {\n",
      "\n",
      "    // this will get initialized to 0\n",
      "    uint256 favoriteNumber;\n",
      "    bool favoriteBool;\n",
      "\n",
      "    struct Person {\n",
      "        uint256 favoriteNumber;\n",
      "        string name;\n",
      "    }\n",
      "\n",
      "    // this array is dynamic specifying\n",
      "    Person[] public people;\n",
      "    // mappings in sol have default values, for uint256 it's 0\n",
      "    mapping(string => uint256) public nameToFavoriteNumber;\n",
      "\n",
      "    function store(uint256 _favoriteNumber) public {\n",
      "        favoriteNumber = _favoriteNumber;\n",
      "    }\n",
      "\n",
      "    function retrieve() public view returns (uint256) {\n",
      "        return favoriteNumber;\n",
      "    }\n",
      "\n",
      "    function addPerson(string memory _name, uint256 _favoriteNumber) public {\n",
      "        people.push(Person(_favoriteNumber, _name));\n",
      "        nameToFavoriteNumber[_name] = _favoriteNumber;\n",
      "    }\n",
      "\n",
      "}\n",
      "\n",
      "// what if we want to have many instances of this contract?\n",
      "\n"
     ]
    }
   ],
   "source": [
    "with open(\"../contracts/SimpleStorage.sol\", \"r\") as file:\n",
    "    simple_storage_file = file.read()\n",
    "\n",
    "print(simple_storage_file)"
   ]
  },
  {
   "cell_type": "code",
   "execution_count": 4,
   "metadata": {},
   "outputs": [],
   "source": [
    "# now we have to compile our smart contract - will use python solc-x package\n",
    "from solcx import compile_standard"
   ]
  },
  {
   "cell_type": "code",
   "execution_count": 5,
   "metadata": {},
   "outputs": [],
   "source": [
    "compiled_sol = compile_standard(\n",
    "    {\n",
    "        \"language\": \"Solidity\",\n",
    "        \"sources\": {\"SimpleStorage.sol\": {\"content\": simple_storage_file}},\n",
    "        \"settings\": {\n",
    "            \"outputSelection\": {\n",
    "                \"*\": {\n",
    "                    \"*\": [\"abi\", \"metadata\", \"evm.bytecode\", \"evm.bytecode.sourceMap\"]\n",
    "                }\n",
    "            }\n",
    "        },\n",
    "    },\n",
    "    solc_version=\"0.8.17\",\n",
    ")\n"
   ]
  },
  {
   "cell_type": "code",
   "execution_count": 6,
   "metadata": {},
   "outputs": [],
   "source": [
    "# get bytecode\n",
    "bytecode = compiled_sol[\"contracts\"][\"SimpleStorage.sol\"][\"SimpleStorage\"][\"evm\"][\"bytecode\"][\"object\"]\n",
    "# get abi\n",
    "abi = compiled_sol[\"contracts\"][\"SimpleStorage.sol\"][\"SimpleStorage\"][\"abi\"]"
   ]
  },
  {
   "cell_type": "code",
   "execution_count": 7,
   "metadata": {},
   "outputs": [],
   "source": [
    "# now deploy\n",
    "\n",
    "from web3 import Web3\n",
    "\n",
    "# connect to local ganache\n",
    "w3 = Web3(Web3.HTTPProvider(\"HTTP://127.0.0.1:8545\"))\n",
    "chain_id = 1337\n",
    "my_address = \"0x90F8bf6A479f320ead074411a4B0e7944Ea8c9C1\"\n",
    "private_key = \"0x4f3edf983ac636a65a842ce7c78d9aa706d3b113bce9c46f30d7d21715b23b1d\""
   ]
  },
  {
   "cell_type": "code",
   "execution_count": 8,
   "metadata": {},
   "outputs": [
    {
     "data": {
      "text/plain": [
       "web3._utils.datatypes.Contract"
      ]
     },
     "execution_count": 8,
     "metadata": {},
     "output_type": "execute_result"
    }
   ],
   "source": [
    "SimpleStorage = w3.eth.contract(abi=abi, bytecode=bytecode)\n",
    "SimpleStorage"
   ]
  },
  {
   "cell_type": "code",
   "execution_count": 9,
   "metadata": {},
   "outputs": [
    {
     "data": {
      "text/plain": [
       "0"
      ]
     },
     "execution_count": 9,
     "metadata": {},
     "output_type": "execute_result"
    }
   ],
   "source": [
    "# build a transaction that deploys the contract\n",
    "# get the latest transaction nonce\n",
    "nonce = w3.eth.getTransactionCount(my_address)\n",
    "nonce"
   ]
  },
  {
   "cell_type": "code",
   "execution_count": 10,
   "metadata": {},
   "outputs": [
    {
     "data": {
      "text/plain": [
       "{'value': 0,\n",
       " 'gas': 562541,\n",
       " 'gasPrice': 2000000000,\n",
       " 'chainId': 1337,\n",
       " 'from': '0x90F8bf6A479f320ead074411a4B0e7944Ea8c9C1',\n",
       " 'nonce': 0,\n",
       " 'data': '0x608060405234801561001057600080fd5b5061093b806100206000396000f3fe608060405234801561001057600080fd5b50600436106100575760003560e01c80632e64cec11461005c5780636057361d1461007a5780636f760f41146100965780638bab8dd5146100b25780639e7a13ad146100e2575b600080fd5b610064610113565b60405161007191906102b2565b60405180910390f35b610094600480360381019061008f919061030d565b61011c565b005b6100b060048036038101906100ab9190610480565b610126565b005b6100cc60048036038101906100c791906104dc565b6101af565b6040516100d991906102b2565b60405180910390f35b6100fc60048036038101906100f7919061030d565b6101dd565b60405161010a9291906105a4565b60405180910390f35b60008054905090565b8060008190555050565b6002604051806040016040528083815260200184815250908060018154018082558091505060019003906000526020600020906002020160009091909190915060008201518160000155602082015181600101908161018591906107e0565b5050508060038360405161019991906108ee565b9081526020016040518091039020819055505050565b6003818051602081018201805184825260208301602085012081835280955050505050506000915090505481565b600281815481106101ed57600080fd5b906000526020600020906002020160009150905080600001549080600101805461021690610603565b80601f016020809104026020016040519081016040528092919081815260200182805461024290610603565b801561028f5780601f106102645761010080835404028352916020019161028f565b820191906000526020600020905b81548152906001019060200180831161027257829003601f168201915b5050505050905082565b6000819050919050565b6102ac81610299565b82525050565b60006020820190506102c760008301846102a3565b92915050565b6000604051905090565b600080fd5b600080fd5b6102ea81610299565b81146102f557600080fd5b50565b600081359050610307816102e1565b92915050565b600060208284031215610323576103226102d7565b5b6000610331848285016102f8565b91505092915050565b600080fd5b600080fd5b6000601f19601f8301169050919050565b7f4e487b7100000000000000000000000000000000000000000000000000000000600052604160045260246000fd5b61038d82610344565b810181811067ffffffffffffffff821117156103ac576103ab610355565b5b80604052505050565b60006103bf6102cd565b90506103cb8282610384565b919050565b600067ffffffffffffffff8211156103eb576103ea610355565b5b6103f482610344565b9050602081019050919050565b82818337600083830152505050565b600061042361041e846103d0565b6103b5565b90508281526020810184848401111561043f5761043e61033f565b5b61044a848285610401565b509392505050565b600082601f8301126104675761046661033a565b5b8135610477848260208601610410565b91505092915050565b60008060408385031215610497576104966102d7565b5b600083013567ffffffffffffffff8111156104b5576104b46102dc565b5b6104c185828601610452565b92505060206104d2858286016102f8565b9150509250929050565b6000602082840312156104f2576104f16102d7565b5b600082013567ffffffffffffffff8111156105105761050f6102dc565b5b61051c84828501610452565b91505092915050565b600081519050919050565b600082825260208201905092915050565b60005b8381101561055f578082015181840152602081019050610544565b60008484015250505050565b600061057682610525565b6105808185610530565b9350610590818560208601610541565b61059981610344565b840191505092915050565b60006040820190506105b960008301856102a3565b81810360208301526105cb818461056b565b90509392505050565b7f4e487b7100000000000000000000000000000000000000000000000000000000600052602260045260246000fd5b6000600282049050600182168061061b57607f821691505b60208210810361062e5761062d6105d4565b5b50919050565b60008190508160005260206000209050919050565b60006020601f8301049050919050565b600082821b905092915050565b6000600883026106967fffffffffffffffffffffffffffffffffffffffffffffffffffffffffffffffff82610659565b6106a08683610659565b95508019841693508086168417925050509392505050565b6000819050919050565b60006106dd6106d86106d384610299565b6106b8565b610299565b9050919050565b6000819050919050565b6106f7836106c2565b61070b610703826106e4565b848454610666565b825550505050565b600090565b610720610713565b61072b8184846106ee565b505050565b5b8181101561074f57610744600082610718565b600181019050610731565b5050565b601f8211156107945761076581610634565b61076e84610649565b8101602085101561077d578190505b61079161078985610649565b830182610730565b50505b505050565b600082821c905092915050565b60006107b760001984600802610799565b1980831691505092915050565b60006107d083836107a6565b9150826002028217905092915050565b6107e982610525565b67ffffffffffffffff81111561080257610801610355565b5b61080c8254610603565b610817828285610753565b600060209050601f83116001811461084a5760008415610838578287015190505b61084285826107c4565b8655506108aa565b601f19841661085886610634565b60005b828110156108805784890151825560018201915060208501945060208101905061085b565b8683101561089d5784890151610899601f8916826107a6565b8355505b6001600288020188555050505b505050505050565b600081905092915050565b60006108c882610525565b6108d281856108b2565b93506108e2818560208601610541565b80840191505092915050565b60006108fa82846108bd565b91508190509291505056fea264697066735822122070930c12126982b6d7e6a82fe79a43bab57f9c4702569c7f14767298446f2e7264736f6c63430008110033',\n",
       " 'to': b''}"
      ]
     },
     "execution_count": 10,
     "metadata": {},
     "output_type": "execute_result"
    }
   ],
   "source": [
    "# build a transaction - SimpleStorage does not have a constructor\n",
    "transaction = SimpleStorage.constructor().buildTransaction({\n",
    "    \"gasPrice\": w3.eth.gas_price,\n",
    "    \"chainId\": chain_id,\n",
    "    \"from\": my_address,\n",
    "    \"nonce\": nonce,\n",
    "})\n",
    "transaction"
   ]
  },
  {
   "cell_type": "code",
   "execution_count": 11,
   "metadata": {},
   "outputs": [
    {
     "data": {
      "text/plain": [
       "SignedTransaction(rawTransaction=HexBytes('0xf909af8084773594008308956d8080b9095b608060405234801561001057600080fd5b5061093b806100206000396000f3fe608060405234801561001057600080fd5b50600436106100575760003560e01c80632e64cec11461005c5780636057361d1461007a5780636f760f41146100965780638bab8dd5146100b25780639e7a13ad146100e2575b600080fd5b610064610113565b60405161007191906102b2565b60405180910390f35b610094600480360381019061008f919061030d565b61011c565b005b6100b060048036038101906100ab9190610480565b610126565b005b6100cc60048036038101906100c791906104dc565b6101af565b6040516100d991906102b2565b60405180910390f35b6100fc60048036038101906100f7919061030d565b6101dd565b60405161010a9291906105a4565b60405180910390f35b60008054905090565b8060008190555050565b6002604051806040016040528083815260200184815250908060018154018082558091505060019003906000526020600020906002020160009091909190915060008201518160000155602082015181600101908161018591906107e0565b5050508060038360405161019991906108ee565b9081526020016040518091039020819055505050565b6003818051602081018201805184825260208301602085012081835280955050505050506000915090505481565b600281815481106101ed57600080fd5b906000526020600020906002020160009150905080600001549080600101805461021690610603565b80601f016020809104026020016040519081016040528092919081815260200182805461024290610603565b801561028f5780601f106102645761010080835404028352916020019161028f565b820191906000526020600020905b81548152906001019060200180831161027257829003601f168201915b5050505050905082565b6000819050919050565b6102ac81610299565b82525050565b60006020820190506102c760008301846102a3565b92915050565b6000604051905090565b600080fd5b600080fd5b6102ea81610299565b81146102f557600080fd5b50565b600081359050610307816102e1565b92915050565b600060208284031215610323576103226102d7565b5b6000610331848285016102f8565b91505092915050565b600080fd5b600080fd5b6000601f19601f8301169050919050565b7f4e487b7100000000000000000000000000000000000000000000000000000000600052604160045260246000fd5b61038d82610344565b810181811067ffffffffffffffff821117156103ac576103ab610355565b5b80604052505050565b60006103bf6102cd565b90506103cb8282610384565b919050565b600067ffffffffffffffff8211156103eb576103ea610355565b5b6103f482610344565b9050602081019050919050565b82818337600083830152505050565b600061042361041e846103d0565b6103b5565b90508281526020810184848401111561043f5761043e61033f565b5b61044a848285610401565b509392505050565b600082601f8301126104675761046661033a565b5b8135610477848260208601610410565b91505092915050565b60008060408385031215610497576104966102d7565b5b600083013567ffffffffffffffff8111156104b5576104b46102dc565b5b6104c185828601610452565b92505060206104d2858286016102f8565b9150509250929050565b6000602082840312156104f2576104f16102d7565b5b600082013567ffffffffffffffff8111156105105761050f6102dc565b5b61051c84828501610452565b91505092915050565b600081519050919050565b600082825260208201905092915050565b60005b8381101561055f578082015181840152602081019050610544565b60008484015250505050565b600061057682610525565b6105808185610530565b9350610590818560208601610541565b61059981610344565b840191505092915050565b60006040820190506105b960008301856102a3565b81810360208301526105cb818461056b565b90509392505050565b7f4e487b7100000000000000000000000000000000000000000000000000000000600052602260045260246000fd5b6000600282049050600182168061061b57607f821691505b60208210810361062e5761062d6105d4565b5b50919050565b60008190508160005260206000209050919050565b60006020601f8301049050919050565b600082821b905092915050565b6000600883026106967fffffffffffffffffffffffffffffffffffffffffffffffffffffffffffffffff82610659565b6106a08683610659565b95508019841693508086168417925050509392505050565b6000819050919050565b60006106dd6106d86106d384610299565b6106b8565b610299565b9050919050565b6000819050919050565b6106f7836106c2565b61070b610703826106e4565b848454610666565b825550505050565b600090565b610720610713565b61072b8184846106ee565b505050565b5b8181101561074f57610744600082610718565b600181019050610731565b5050565b601f8211156107945761076581610634565b61076e84610649565b8101602085101561077d578190505b61079161078985610649565b830182610730565b50505b505050565b600082821c905092915050565b60006107b760001984600802610799565b1980831691505092915050565b60006107d083836107a6565b9150826002028217905092915050565b6107e982610525565b67ffffffffffffffff81111561080257610801610355565b5b61080c8254610603565b610817828285610753565b600060209050601f83116001811461084a5760008415610838578287015190505b61084285826107c4565b8655506108aa565b601f19841661085886610634565b60005b828110156108805784890151825560018201915060208501945060208101905061085b565b8683101561089d5784890151610899601f8916826107a6565b8355505b6001600288020188555050505b505050505050565b600081905092915050565b60006108c882610525565b6108d281856108b2565b93506108e2818560208601610541565b80840191505092915050565b60006108fa82846108bd565b91508190509291505056fea264697066735822122070930c12126982b6d7e6a82fe79a43bab57f9c4702569c7f14767298446f2e7264736f6c63430008110033820a96a06f7f7ebfac923a66e56da19321421795fc86a9bda0d648b9d5266e7eec6e8e19a03e7808596abb5019fd77aab8294d52f78be698774a2f10e51fa2fbe23feff3f3'), hash=HexBytes('0x7b7097853f6303f2cf0a307050ab7eedb8b384351246ad850a7eaac4127bb8f0'), r=50431990557532801887736046527688489367277433878058050955634555923066377899545, s=28255475884582108872721250870344771125906598346640444421608293639216797053939, v=2710)"
      ]
     },
     "execution_count": 11,
     "metadata": {},
     "output_type": "execute_result"
    }
   ],
   "source": [
    "# sign the transaction\n",
    "signed_txn = w3.eth.account.sign_transaction(transaction, private_key=private_key)\n",
    "signed_txn"
   ]
  },
  {
   "cell_type": "code",
   "execution_count": 12,
   "metadata": {},
   "outputs": [],
   "source": [
    "# send the transaction\n",
    "tx_hash = w3.eth.send_raw_transaction(signed_txn.rawTransaction)"
   ]
  },
  {
   "cell_type": "code",
   "execution_count": 13,
   "metadata": {},
   "outputs": [
    {
     "data": {
      "text/plain": [
       "AttributeDict({'transactionHash': HexBytes('0x7b7097853f6303f2cf0a307050ab7eedb8b384351246ad850a7eaac4127bb8f0'),\n",
       " 'transactionIndex': 0,\n",
       " 'blockNumber': 1,\n",
       " 'blockHash': HexBytes('0x52eac9959555aa2de94a91821c01408208fdafb9846ffd13ac35ac0951b532d6'),\n",
       " 'from': '0x90F8bf6A479f320ead074411a4B0e7944Ea8c9C1',\n",
       " 'to': None,\n",
       " 'cumulativeGasUsed': 562541,\n",
       " 'gasUsed': 562541,\n",
       " 'contractAddress': '0xe78A0F7E598Cc8b0Bb87894B0F60dD2a88d6a8Ab',\n",
       " 'logs': [],\n",
       " 'logsBloom': HexBytes('0x00000000000000000000000000000000000000000000000000000000000000000000000000000000000000000000000000000000000000000000000000000000000000000000000000000000000000000000000000000000000000000000000000000000000000000000000000000000000000000000000000000000000000000000000000000000000000000000000000000000000000000000000000000000000000000000000000000000000000000000000000000000000000000000000000000000000000000000000000000000000000000000000000000000000000000000000000000000000000000000000000000000000000000000000000000000'),\n",
       " 'status': 1,\n",
       " 'effectiveGasPrice': 2000000000,\n",
       " 'type': '0x0'})"
      ]
     },
     "execution_count": 13,
     "metadata": {},
     "output_type": "execute_result"
    }
   ],
   "source": [
    "# wait for the transaction to be mined\n",
    "tx_receipt = w3.eth.wait_for_transaction_receipt(tx_hash)\n",
    "tx_receipt"
   ]
  },
  {
   "cell_type": "code",
   "execution_count": 14,
   "metadata": {},
   "outputs": [],
   "source": [
    "# working with the contract\n",
    "# remember we always need the address and abi\n",
    "\n",
    "simple_storage = w3.eth.contract(address=tx_receipt.contractAddress, abi=abi)"
   ]
  },
  {
   "cell_type": "code",
   "execution_count": 15,
   "metadata": {},
   "outputs": [
    {
     "data": {
      "text/plain": [
       "[<Function addPerson(string,uint256)>,\n",
       " <Function nameToFavoriteNumber(string)>,\n",
       " <Function people(uint256)>,\n",
       " <Function retrieve()>,\n",
       " <Function store(uint256)>]"
      ]
     },
     "execution_count": 15,
     "metadata": {},
     "output_type": "execute_result"
    }
   ],
   "source": [
    "simple_storage.all_functions()"
   ]
  },
  {
   "cell_type": "code",
   "execution_count": 16,
   "metadata": {},
   "outputs": [
    {
     "data": {
      "text/plain": [
       "0"
      ]
     },
     "execution_count": 16,
     "metadata": {},
     "output_type": "execute_result"
    }
   ],
   "source": [
    "simple_storage.functions.retrieve().call()"
   ]
  },
  {
   "cell_type": "code",
   "execution_count": 17,
   "metadata": {},
   "outputs": [
    {
     "data": {
      "text/plain": [
       "{'value': 0,\n",
       " 'gas': 43724,\n",
       " 'gasPrice': 2000000000,\n",
       " 'chainId': 1337,\n",
       " 'from': '0x90F8bf6A479f320ead074411a4B0e7944Ea8c9C1',\n",
       " 'nonce': 1,\n",
       " 'to': '0xe78A0F7E598Cc8b0Bb87894B0F60dD2a88d6a8Ab',\n",
       " 'data': '0x6057361d000000000000000000000000000000000000000000000000000000000000000f'}"
      ]
     },
     "execution_count": 17,
     "metadata": {},
     "output_type": "execute_result"
    }
   ],
   "source": [
    "# now store a new value\n",
    "\n",
    "store_txn = simple_storage.functions.store(15).buildTransaction({\n",
    "    \"gasPrice\": w3.eth.gas_price,\n",
    "    \"chainId\": chain_id,\n",
    "    \"from\": my_address,\n",
    "    \"nonce\": nonce + 1,\n",
    "})\n",
    "\n",
    "store_txn"
   ]
  },
  {
   "cell_type": "code",
   "execution_count": 18,
   "metadata": {},
   "outputs": [
    {
     "data": {
      "text/plain": [
       "SignedTransaction(rawTransaction=HexBytes('0xf88901847735940082aacc94e78a0f7e598cc8b0bb87894b0f60dd2a88d6a8ab80a46057361d000000000000000000000000000000000000000000000000000000000000000f820a95a0c664c48348dfc8db7b5849fab84324a77e585a9b90932d2741838b4751f38019a0728b85fec8d9a9da9d5bf2ba7998f80472de29bd93dfd0f8c382cce3b0babcac'), hash=HexBytes('0x79a778ba5f89a102853db07a34f88572b42c8c1942a96f956c11d2ba5ee57e1e'), r=89735985007676112322637977936966552555421687281129989302264488322903470997529, s=51810181281739140198359475815786327534288399534719226071156574253455723117740, v=2709)"
      ]
     },
     "execution_count": 18,
     "metadata": {},
     "output_type": "execute_result"
    }
   ],
   "source": [
    "# sign the transaction\n",
    "signed_store_txn = w3.eth.account.sign_transaction(store_txn, private_key=private_key)\n",
    "signed_store_txn"
   ]
  },
  {
   "cell_type": "code",
   "execution_count": 19,
   "metadata": {},
   "outputs": [
    {
     "data": {
      "text/plain": [
       "AttributeDict({'transactionHash': HexBytes('0x79a778ba5f89a102853db07a34f88572b42c8c1942a96f956c11d2ba5ee57e1e'),\n",
       " 'transactionIndex': 0,\n",
       " 'blockNumber': 2,\n",
       " 'blockHash': HexBytes('0xda0837f666553b82ef119e137e37b65b506bcc4b03c86cac818bacbad504ca80'),\n",
       " 'from': '0x90F8bf6A479f320ead074411a4B0e7944Ea8c9C1',\n",
       " 'to': '0xe78A0F7E598Cc8b0Bb87894B0F60dD2a88d6a8Ab',\n",
       " 'cumulativeGasUsed': 43724,\n",
       " 'gasUsed': 43724,\n",
       " 'contractAddress': None,\n",
       " 'logs': [],\n",
       " 'logsBloom': HexBytes('0x00000000000000000000000000000000000000000000000000000000000000000000000000000000000000000000000000000000000000000000000000000000000000000000000000000000000000000000000000000000000000000000000000000000000000000000000000000000000000000000000000000000000000000000000000000000000000000000000000000000000000000000000000000000000000000000000000000000000000000000000000000000000000000000000000000000000000000000000000000000000000000000000000000000000000000000000000000000000000000000000000000000000000000000000000000000'),\n",
       " 'status': 1,\n",
       " 'effectiveGasPrice': 2000000000,\n",
       " 'type': '0x0'})"
      ]
     },
     "execution_count": 19,
     "metadata": {},
     "output_type": "execute_result"
    }
   ],
   "source": [
    "# send the transaction\n",
    "send_store_txn = w3.eth.send_raw_transaction(signed_store_txn.rawTransaction)\n",
    "\n",
    "# wait for the transaction to be mined\n",
    "send_store_receipt = w3.eth.wait_for_transaction_receipt(send_store_txn)\n",
    "send_store_receipt"
   ]
  },
  {
   "cell_type": "code",
   "execution_count": 20,
   "metadata": {},
   "outputs": [
    {
     "data": {
      "text/plain": [
       "15"
      ]
     },
     "execution_count": 20,
     "metadata": {},
     "output_type": "execute_result"
    }
   ],
   "source": [
    "simple_storage.functions.retrieve().call()"
   ]
  },
  {
   "cell_type": "code",
   "execution_count": null,
   "metadata": {},
   "outputs": [],
   "source": []
  }
 ],
 "metadata": {
  "kernelspec": {
   "display_name": "base",
   "language": "python",
   "name": "python3"
  },
  "language_info": {
   "codemirror_mode": {
    "name": "ipython",
    "version": 3
   },
   "file_extension": ".py",
   "mimetype": "text/x-python",
   "name": "python",
   "nbconvert_exporter": "python",
   "pygments_lexer": "ipython3",
   "version": "3.9.12"
  },
  "orig_nbformat": 4,
  "vscode": {
   "interpreter": {
    "hash": "a15702a29ea01ae7aa6b51d803dd08c0ac5dbedc153ed7a5fc67a3e004dd827d"
   }
  }
 },
 "nbformat": 4,
 "nbformat_minor": 2
}
